:03000000020000FB
:03000100020001F9
:03000200030004F4
:0300030004000AEC
:03000400050018DC
:03000500050019DA
:03000600060038B9
:0300070007007877
:030008000901F4F7
:030009000A03F6F1
:03000A000C0FF4E4
:03000B0004000BE3
:03000C00060039B2
:03000D000800F6F2
:03000E000901F5F0
:03000F000B07F6E6
:030010000C0FF5DD
:0300110010FF8855
:0300120010FF8953
:0300130010FF8A51
:0300140010FF8B4F
:0300150005001AC9
:030016000800F7E8
:030017000A03F7E2
:030018000C0FF6D4
:030019000F7FC294
:03001A0010FF8C48
:03001B0010FF8D46
:03001C0010FF8E44
:03001D0010FF8F42
:03001E0010FF9040
:03001F0005001BBE
:030020000800F8DD
:030021000A03F8D7
:030022000C0FF7C9
:0300230010FF913A
:0300240010FF9238
:0300250010FF9336
:0300260010FF9434
:0300270010FF9532
:0300280010FF9630
:0300290006003A94
:03002A000901F6D3
:03002B0010FF972C
:03002C0010FF982A
:03002D0010FF9928
:03002E0010FF9A26
:03002F0010FF9B24
:0300300010FF9C22
:0300310010FF9D20
:0300320010FF9E1E
:0300330006003B89
:030034000A03F9C3
:0300350010FF9F1A
:0300360010FFA018
:0300370010FFA116
:0300380010FFA214
:0300390010FFA312
:03003A0010FFA410
:03003B0010FFA50E
:03003C0010FFA60C
:03003D0007007940
:03003E000B07F7B6
:03003F0010FFA708
:0300400010FFA806
:0300410010FFA904
:0300420010FFAA02
:0300430010FFAB00
:0300440010FFACFE
:0300450010FFADFC
:0300460010FFAEFA
:0300470007007A35
:030048000B07F8AB
:0300490010FFAFF6
:03004A0010FFB0F4
:03004B0010FFB1F2
:03004C0010FFB2F0
:03004D0010FFB3EE
:03004E0010FFB4EC
:03004F0010FFB5EA
:0300500010FFB6E8
:030051000800F9AB
:0300520010FFB7E5
:0300530010FFB8E3
:0300540010FFB9E1
:0300550010FFBADF
:0300560010FFBBDD
:0300570010FFBCDB
:0300580010FFBDD9
:0300590010FFBED7
:03005A0010FFBFD5
:03005B000901F7A1
:03005C0010FFC0D2
:03005D0010FFC1D0
:03005E0010FFC2CE
:03005F0010FFC3CC
:0300600010FFC4CA
:0300610010FFC5C8
:0300620010FFC6C6
:0300630010FFC7C4
:0300640010FFC8C2
:030065000901F896
:0300660010FFC9BF
:0300670010FFCABD
:0300680010FFCBBB
:0300690010FFCCB9
:03006A0010FFCDB7
:03006B0010FFCEB5
:03006C0010FFCFB3
:03006D0010FFD0B1
:03006E0010FFD1AF
:03006F000901F98B
:0300700010FFD2AC
:0300710010FFD3AA
:0300720010FFD4A8
:0300730010FFD5A6
:0300740010FFD6A4
:0300750010FFD7A2
:0300760010FFD8A0
:0300770010FFD99E
:0300780010FFDA9C
:030079000901FA80
:03007A0010FFDB99
:03007B0010FFDC97
:03007C0010FFDD95
:03007D0010FFDE93
:03007E0010FFDF91
:03007F0010FFE08F
:0300800010FFE18D
:0300810010FFE28B
:0300820010FFE389
:030083000B07F96F
:0300840010FFE486
:0300850010FFE584
:0300860010FFE682
:0300870010FFE780
:0300880010FFE87E
:0300890010FFE97C
:03008A0010FFEA7A
:03008B0010FFEB78
:03008C0010FFEC76
:03008D000E3FE043
:03008E0010FFED73
:03008F0010FFEE71
:0300900010FFEF6F
:0300910010FFF06D
:0300920010FFF16B
:0300930010FFF269
:0300940010FFF367
:0300950010FFF465
:0300960010FFF563
:030097000F7FC315
:0300980010FFF660
:0300990010FFF75E
:03009A0010FFF85C
:03009B0010FFF95A
:03009C0010FFFA58
:03009D0010FFFB56
:03009E0010FFFC54
:03009F0010FFFD52
:0300A00010FFFE50
:00000001FF
