:0300000004000AEF
:03000100020000FA
:03000200020001F8
:03000300030004F3
:0300040004000BEA
:0300050005001AD9
:0300060007007878
:030007000800F8F6
:030008000A03F6F2
:0300090010FF8263
:03000A0010FF8361
:03000B0004000CE2
:03000C0005001BD1
:03000D0007007970
:03000E000901F6EF
:03000F000B07F6E6
:0300100010FF845A
:0300110010FF8558
:0300120010FF8656
:0300130010FF8754
:0300140010FF8852
:0300150005001CC7
:030016000800F9E6
:030017000A03F7E2
:030018000C0FF4D6
:0300190010FF894C
:03001A0010FF8A4A
:03001B0010FF8B48
:03001C0010FF8C46
:03001D0010FF8D44
:03001E0010FF8E42
:03001F0006003A9E
:030020000901F7DC
:030021000C0FF5CC
:0300220010FF8F3D
:0300230010FF903B
:0300240010FF9139
:0300250010FF9237
:0300260010FF9335
:0300270010FF9433
:0300280010FF9531
:0300290006003B93
:03002A000A03F8CE
:03002B0010FF962D
:03002C0010FF972B
:03002D0010FF9829
:03002E0010FF9927
:03002F0010FF9A25
:0300300010FF9B23
:0300310010FF9C21
:0300320010FF9D1F
:0300330007007A49
:030034000B07F7C0
:0300350010FF9E1B
:0300360010FF9F19
:0300370010FFA017
:0300380010FFA115
:0300390010FFA213
:03003A0010FFA311
:03003B0010FFA40F
:03003C0010FFA50D
:03003D0007007B3E
:03003E000C0FF6AE
:03003F0010FFA609
:0300400010FFA707
:0300410010FFA805
:0300420010FFA903
:0300430010FFAA01
:0300440010FFABFF
:0300450010FFACFD
:0300460010FFADFB
:030047000800FAB4
:030048000C0FF7A3
:0300490010FFAEF7
:03004A0010FFAFF5
:03004B0010FFB0F3
:03004C0010FFB1F1
:03004D0010FFB2EF
:03004E0010FFB3ED
:03004F0010FFB4EB
:0300500010FFB5E9
:030051000901F8AA
:030052000F7FC05D
:0300530010FFB6E5
:0300540010FFB7E3
:0300550010FFB8E1
:0300560010FFB9DF
:0300570010FFBADD
:0300580010FFBBDB
:0300590010FFBCD9
:03005A0010FFBDD7
:03005B000901F99F
:03005C0010FFBED4
:03005D0010FFBFD2
:03005E0010FFC0D0
:03005F0010FFC1CE
:0300600010FFC2CC
:0300610010FFC3CA
:0300620010FFC4C8
:0300630010FFC5C6
:0300640010FFC6C4
:030065000901FA94
:0300660010FFC7C1
:0300670010FFC8BF
:0300680010FFC9BD
:0300690010FFCABB
:03006A0010FFCBB9
:03006B0010FFCCB7
:03006C0010FFCDB5
:03006D0010FFCEB3
:03006E0010FFCFB1
:03006F000A03F988
:0300700010FFD0AE
:0300710010FFD1AC
:0300720010FFD2AA
:0300730010FFD3A8
:0300740010FFD4A6
:0300750010FFD5A4
:0300760010FFD6A2
:0300770010FFD7A0
:0300780010FFD89E
:030079000A03FA7D
:03007A0010FFD99B
:03007B0010FFDA99
:03007C0010FFDB97
:03007D0010FFDC95
:03007E0010FFDD93
:03007F0010FFDE91
:0300800010FFDF8F
:0300810010FFE08D
:0300820010FFE18B
:030083000B07F870
:0300840010FFE288
:0300850010FFE386
:0300860010FFE484
:0300870010FFE582
:0300880010FFE680
:0300890010FFE77E
:03008A0010FFE87C
:03008B0010FFE97A
:03008C0010FFEA78
:03008D0010FFEB76
:03008E0010FFEC74
:03008F0010FFED72
:0300900010FFEE70
:0300910010FFEF6E
:0300920010FFF06C
:0300930010FFF16A
:0300940010FFF268
:0300950010FFF366
:0300960010FFF464
:0300970010FFF562
:0300980010FFF660
:0300990010FFF75E
:03009A0010FFF85C
:03009B0010FFF95A
:03009C0010FFFA58
:03009D0010FFFB56
:03009E0010FFFC54
:03009F0010FFFD52
:0300A00010FFFE50
:00000001FF
